{"abi":[{"type":"function","name":"A","inputs":[],"outputs":[{"name":"","type":"uint256","internalType":"uint256"}],"stateMutability":"view"},{"type":"function","name":"B","inputs":[],"outputs":[{"name":"","type":"uint256","internalType":"uint256"}],"stateMutability":"view"},{"type":"function","name":"getEthBuyQuote","inputs":[{"name":"currentSupply","type":"uint256","internalType":"uint256"},{"name":"ethOrderSize","type":"uint256","internalType":"uint256"}],"outputs":[{"name":"","type":"uint256","internalType":"uint256"}],"stateMutability":"pure"},{"type":"function","name":"getEthSellQuote","inputs":[{"name":"currentSupply","type":"uint256","internalType":"uint256"},{"name":"ethOrderSize","type":"uint256","internalType":"uint256"}],"outputs":[{"name":"","type":"uint256","internalType":"uint256"}],"stateMutability":"pure"},{"type":"function","name":"getTokenBuyQuote","inputs":[{"name":"currentSupply","type":"uint256","internalType":"uint256"},{"name":"tokenOrderSize","type":"uint256","internalType":"uint256"}],"outputs":[{"name":"","type":"uint256","internalType":"uint256"}],"stateMutability":"pure"},{"type":"function","name":"getTokenSellQuote","inputs":[{"name":"currentSupply","type":"uint256","internalType":"uint256"},{"name":"tokensToSell","type":"uint256","internalType":"uint256"}],"outputs":[{"name":"","type":"uint256","internalType":"uint256"}],"stateMutability":"pure"},{"type":"error","name":"InsufficientLiquidity","inputs":[]}],"bytecode":{"object":"0x60c0806040523461006157633f3b44456080526401050cf21b60a0526107dc90816100678239608051818181607a0152818161011601526101ad015260a05181818160dc015281816101790152818161020a0152818161026c01526102a90152f35b600080fdfe60806040818152600436101561001457600080fd5b600091823560e01c90816332e7c5bf1461029257508063447df2291461023a57806373317164146101e757806390d60a0e14610156578063c1e4dcbc146100a15763f446c1d01461006457600080fd5b3461009d578160031936011261009d57602090517f00000000000000000000000000000000000000000000000000000000000000008152f35b5080fd5b50903461015357506100b2366102cc565b808293921061014257826101146100ce61013b9360209661030a565b61010e6101026101076101027f00000000000000000000000000000000000000000000000000000000000000009687610317565b610342565b9285610317565b9061030a565b7f0000000000000000000000000000000000000000000000000000000000000000906104a6565b9051908152f35b815163bb55fd2760e01b8152600490fd5b80fd5b503461009d5760209061013b6101e261016e366102cc565b6101dd6101d89392937f0000000000000000000000000000000000000000000000000000000000000000926101d26101a96101028887610317565b91857f0000000000000000000000000000000000000000000000000000000000000000916104a6565b906102e7565b610544565b610763565b61030a565b503461009d5760209061013b61010e6101ff366102cc565b6101dd6101d89392937f00000000000000000000000000000000000000000000000000000000000000009261010e6101a96101028887610317565b503461009d5760209061013b61025e610114610255366102cc565b908093916102e7565b6101e26101026101076101027f00000000000000000000000000000000000000000000000000000000000000009687610317565b83903461009d578160031936011261009d576020907f00000000000000000000000000000000000000000000000000000000000000008152f35b60409060031901126102e2576004359060243590565b600080fd5b919082018092116102f457565b634e487b7160e01b600052601160045260246000fd5b919082039182116102f457565b9080600019048211810261033457670de0b6b3a764000091020490565b63bac65e5b6000526004601cfd5b68023f2fa8f6da5b9d28198113156104a057680755bf798b4a1bf1e5811215610492576503782dace9d990604e1b0574029d9dc38563c32e5c2f6dc192ee70ef65f9978af36bb17217f7d1cf79abc9e3b398916060906001605f1b8482841b0501821d9384029003806c10fe68e7fd37d0007b713f7650810102821d906e0587f503bb6ea29d25fcb7401964506e05180bb14799ab47a8a8cb2a527d57826e02c72388d9f74f51a9331fed693f1419816db1bbb201f443cf962f1a1d3db4a5816d1a521255e34f6a5061b25ef1c9c319816d0277594991cfc85f6e2461837cd9816c240c330e9fb2d9cbaf0fd5aafb198101028d1d01028b1d0102891d0102871d0102851d01936d360d7aeea093263ecc6e0ecb291760621b936d02d16720577bd19bf614176fe9ea810190846d01d3967ed30fc4f89c02bab570811991010102901d01020105029060c3031c90565b63a37bfec96000526004601cfd5b50600090565b60009180820291906000198183099183831084018084039314610528578286111561051b57908591099160018585038616809604600281600302811880830282030280830282030280830282030280830282030280830282030280920290030295808086850304960304019211900302170290565b63ae47f70285526004601cfd5b50505090821561053757500490565b63ae47f70290526004601cfd5b806fffffffffffffffffffffffffffffffff1060071b81811c67ffffffffffffffff1060061b1781811c63ffffffff1060051b1781811c61ffff1060041b1781811c60ff1060031b176000821315610755577ff8f9f9faf9fdfafbf9fdfcfdfafbfcfef9fafdfafcfcfbfefafafcfbffffffff6f8421084210842108cc6318c6db6d54be83831c1c601f161a1890811b609f1c6060816c465772b2bbbb5f824b15207a30018202811d6d0388eaa27412d5aca026815d636e018202811d6d0df99ac502031bf953eff472fdcc018202811d6d13cdffb29d51d99322bdff5f2211018202811d6d0a0f742023def783a307a986912e018202811d6d01920d8043ca89b5239253284e42018202811d6c0b7a86d7375468fac667a0a5270191780a09507084cc699bb0e71ea869ffffffffffffffffffffffff19916cb9a025d814b29c212b8b1a07cd1990826d02384773bdf1ac5676facced609019816c8c3f38e95a6b1ff2ab1c3b343619818080806c29508e458543d8aa4df2abee780102871d6d0139601a2efabe717e604cbb48940102861d6d02247f7a7b6594320649aa03aba10102851d0102831d0102901d01020105711340daa0d5f769dba1915cef59f0815a55060290609f037d0267a36c0c95b3975ab3ee5b203a7614a3f75373f047d803ae7b6687f2b302017d57115e47018c7177eebf7cd370a3356a1b7863008a5ae8028c72b88642840160ae1d90565b631615e6386000526004601cfd5b670de0b6b3a7640000907812725dd1d243aba0e75fe645cc4873f9e65afe688c928e1f21811182021583021561079857020490565b637c5f487d6000526004601cfdfea264697066735822122037e26924d4c9c025574f75b0d23171da544e6efb19c56a7932dfeeb94bb328c664736f6c63430008170033","linkReferences":{}},"methodIdentifiers":{"A()":"f446c1d0","B()":"32e7c5bf","getEthBuyQuote(uint256,uint256)":"90d60a0e","getEthSellQuote(uint256,uint256)":"73317164","getTokenBuyQuote(uint256,uint256)":"447df229","getTokenSellQuote(uint256,uint256)":"c1e4dcbc"},"id":45}