{"abi":[{"type":"constructor","inputs":[],"stateMutability":"nonpayable"},{"type":"function","name":"approve","inputs":[{"name":"to","type":"address","internalType":"address"},{"name":"tokenId","type":"uint256","internalType":"uint256"}],"outputs":[],"stateMutability":"nonpayable"},{"type":"function","name":"balanceOf","inputs":[{"name":"owner","type":"address","internalType":"address"}],"outputs":[{"name":"","type":"uint256","internalType":"uint256"}],"stateMutability":"view"},{"type":"function","name":"convictionDetails","inputs":[{"name":"","type":"uint256","internalType":"uint256"}],"outputs":[{"name":"evolution","type":"string","internalType":"string"},{"name":"amount","type":"uint256","internalType":"uint256"},{"name":"price","type":"uint256","internalType":"uint256"},{"name":"timestamp","type":"uint256","internalType":"uint256"}],"stateMutability":"view"},{"type":"function","name":"getApproved","inputs":[{"name":"tokenId","type":"uint256","internalType":"uint256"}],"outputs":[{"name":"","type":"address","internalType":"address"}],"stateMutability":"view"},{"type":"function","name":"getHigherrrrrrrState","inputs":[],"outputs":[{"name":"currentName","type":"string","internalType":"string"},{"name":"currentPrice","type":"uint256","internalType":"uint256"},{"name":"marketType","type":"uint8","internalType":"enum IHigherrrrrrr.MarketType"}],"stateMutability":"view"},{"type":"function","name":"higherrrrrrr","inputs":[],"outputs":[{"name":"","type":"address","internalType":"contract IHigherrrrrrr"}],"stateMutability":"view"},{"type":"function","name":"initialize","inputs":[{"name":"_higherrrrrrr","type":"address","internalType":"address"}],"outputs":[],"stateMutability":"nonpayable"},{"type":"function","name":"isApprovedForAll","inputs":[{"name":"owner","type":"address","internalType":"address"},{"name":"operator","type":"address","internalType":"address"}],"outputs":[{"name":"","type":"bool","internalType":"bool"}],"stateMutability":"view"},{"type":"function","name":"mintConviction","inputs":[{"name":"to","type":"address","internalType":"address"},{"name":"evolution","type":"string","internalType":"string"},{"name":"amount","type":"uint256","internalType":"uint256"},{"name":"price","type":"uint256","internalType":"uint256"}],"outputs":[{"name":"","type":"uint256","internalType":"uint256"}],"stateMutability":"nonpayable"},{"type":"function","name":"name","inputs":[],"outputs":[{"name":"","type":"string","internalType":"string"}],"stateMutability":"view"},{"type":"function","name":"owner","inputs":[],"outputs":[{"name":"","type":"address","internalType":"address"}],"stateMutability":"view"},{"type":"function","name":"ownerOf","inputs":[{"name":"tokenId","type":"uint256","internalType":"uint256"}],"outputs":[{"name":"","type":"address","internalType":"address"}],"stateMutability":"view"},{"type":"function","name":"renounceOwnership","inputs":[],"outputs":[],"stateMutability":"nonpayable"},{"type":"function","name":"safeTransferFrom","inputs":[{"name":"from","type":"address","internalType":"address"},{"name":"to","type":"address","internalType":"address"},{"name":"tokenId","type":"uint256","internalType":"uint256"}],"outputs":[],"stateMutability":"nonpayable"},{"type":"function","name":"safeTransferFrom","inputs":[{"name":"from","type":"address","internalType":"address"},{"name":"to","type":"address","internalType":"address"},{"name":"tokenId","type":"uint256","internalType":"uint256"},{"name":"data","type":"bytes","internalType":"bytes"}],"outputs":[],"stateMutability":"nonpayable"},{"type":"function","name":"setApprovalForAll","inputs":[{"name":"operator","type":"address","internalType":"address"},{"name":"approved","type":"bool","internalType":"bool"}],"outputs":[],"stateMutability":"nonpayable"},{"type":"function","name":"supportsInterface","inputs":[{"name":"interfaceId","type":"bytes4","internalType":"bytes4"}],"outputs":[{"name":"","type":"bool","internalType":"bool"}],"stateMutability":"view"},{"type":"function","name":"symbol","inputs":[],"outputs":[{"name":"","type":"string","internalType":"string"}],"stateMutability":"view"},{"type":"function","name":"tokenURI","inputs":[{"name":"tokenId","type":"uint256","internalType":"uint256"}],"outputs":[{"name":"","type":"string","internalType":"string"}],"stateMutability":"view"},{"type":"function","name":"transferFrom","inputs":[{"name":"from","type":"address","internalType":"address"},{"name":"to","type":"address","internalType":"address"},{"name":"tokenId","type":"uint256","internalType":"uint256"}],"outputs":[],"stateMutability":"nonpayable"},{"type":"function","name":"transferOwnership","inputs":[{"name":"newOwner","type":"address","internalType":"address"}],"outputs":[],"stateMutability":"nonpayable"},{"type":"event","name":"Approval","inputs":[{"name":"owner","type":"address","indexed":true,"internalType":"address"},{"name":"approved","type":"address","indexed":true,"internalType":"address"},{"name":"tokenId","type":"uint256","indexed":true,"internalType":"uint256"}],"anonymous":false},{"type":"event","name":"ApprovalForAll","inputs":[{"name":"owner","type":"address","indexed":true,"internalType":"address"},{"name":"operator","type":"address","indexed":true,"internalType":"address"},{"name":"approved","type":"bool","indexed":false,"internalType":"bool"}],"anonymous":false},{"type":"event","name":"OwnershipTransferred","inputs":[{"name":"previousOwner","type":"address","indexed":true,"internalType":"address"},{"name":"newOwner","type":"address","indexed":true,"internalType":"address"}],"anonymous":false},{"type":"event","name":"Transfer","inputs":[{"name":"from","type":"address","indexed":true,"internalType":"address"},{"name":"to","type":"address","indexed":true,"internalType":"address"},{"name":"tokenId","type":"uint256","indexed":true,"internalType":"uint256"}],"anonymous":false}],"bytecode":{"object":"0x60803462000371576001600160401b03906040818101838111838210176200035b578152601782526020917f48696768657272727272727220436f6e76696374696f6e00000000000000000083820152815193828501858110828211176200035b578352600a85526921a7a72b24a1aa24a7a760b11b8486015281518181116200035b576000948554916001948584811c9416801562000350575b838510146200033c578190601f94858111620002e9575b5083908583116001146200028557899262000279575b5050600019600383901b1c191690851b1786555b8651928311620002655783548481811c911680156200025a575b828210146200024657828111620001fe575b5080918311600114620001975750849582939495926200018b575b5050600019600383901b1c191690821b1790555b60068054336001600160a01b03198216811790925591519290916001600160a01b0316907f8be0079c531659141344cd1fd0a4f28419497f9722a3daafe3b4186f6b6457e09080a36121149081620003778239f35b01519050388062000122565b90601f198316968487528287209287905b898210620001e6575050838596979810620001cc575b505050811b01905562000136565b015160001960f88460031b161c19169055388080620001be565b808785968294968601518155019501930190620001a8565b8487528187208380860160051c8201928487106200023c575b0160051c019085905b8281106200023057505062000107565b88815501859062000220565b9250819262000217565b634e487b7160e01b87526022600452602487fd5b90607f1690620000f5565b634e487b7160e01b86526041600452602486fd5b015190503880620000c7565b898052848a208894509190601f1984168b5b87828210620002d25750508411620002b8575b505050811b018655620000db565b015160001960f88460031b161c19169055388080620002aa565b8385015186558b9790950194938401930162000297565b9091508880528389208580850160051c82019286861062000332575b918991869594930160051c01915b82811062000323575050620000b1565b8b815585945089910162000313565b9250819262000305565b634e487b7160e01b88526022600452602488fd5b93607f16936200009a565b634e487b7160e01b600052604160045260246000fd5b600080fdfe6080604081815260048036101561001557600080fd5b600092833560e01c90816301ffc9a7146115eb5750806306fdde031461153a578063081812fc1461151a578063095ea7b3146113ad57806323b872dd1461138357806342842e0e1461135a57806347d9e596146113315780634827eb8c146112d0578063500788f614610fbf5780636352211e14610f8e57806370a0823114610ef8578063715018a614610e9b5780638da5cb5b14610e7257806395d89b4114610d87578063a22cb46514610cbc578063a39ff85c14610a9f578063b88d4fde14610a37578063c4d66de8146109b8578063c87b56dd14610225578063e985e9c5146101d35763f2fde38b1461010a57600080fd5b346101cf5760203660031901126101cf5761012361169f565b9061012c611c26565b6001600160a01b0391821692831561017d575050600654826001600160601b0360a01b821617600655167f8be0079c531659141344cd1fd0a4f28419497f9722a3daafe3b4186f6b6457e08380a380f35b906020608492519162461bcd60e51b8352820152602660248201527f4f776e61626c653a206e6577206f776e657220697320746865207a65726f206160448201526564647265737360d01b6064820152fd5b8280fd5b50503461022157806003193601126102215760ff816020936101f361169f565b6101fb6116ba565b6001600160a01b0391821683526005875283832091168252855220549151911615158152f35b5080fd5b5082903461022157602091826003193601126109b557813580825260028452848220549092906001600160a01b03161561097c5750808285925260098452208351906102708261173f565b610279816117af565b825260018101549084830191825260028101549386840191858352600301549260608501938452670de0b6b3a7640000808097046102b690611d03565b9351066102c290611d03565b9588518097898083018781985192839101916102dd92611657565b82018a8101601760f91b9052815191828c602184019201916102fe92611657565b0103600181018852602101610313908861178d565b8551928183510461032390611d03565b865161032e90611d03565b8b517f3c73766720786d6c6e733d22687474703a2f2f7777772e77332e6f72672f32308c8201527f30302f737667222076696577426f783d223020302034303020343030223e0000818e0152661e39ba3cb6329f60c91b605e8201527f74657874207b20666f6e742d66616d696c793a206d6f6e6f73706163653b206660658201527f696c6c3a20233461666134613b20746578742d616e63686f723a206d6964646c608582015263653b207d60e01b60a58201527f2e6c656674207b20746578742d616e63686f723a2073746172743b207d00000060a98201527f2e7269676874207b20746578742d616e63686f723a20656e643b207d0000000060c6820152671e17b9ba3cb6329f60c11b60e28201527f3c726563742077696474683d2234303022206865696768743d2234303022206660ea8201526e34b6361e911198181818181811179f60891b61010a8201527f3c7465787420783d223230302220793d223135302220666f6e742d73697a653d6101198201526411191a111f60d91b6101398201528651909687929161013e918e91906104d4908290858801908501611657565b8401661e17ba32bc3a1f60c91b809382015261014581017f3c7465787420783d223230302220793d223230302220666f6e742d73697a653d905264111918111f60d91b61016582015261016a958051809388840192019161053492611657565b6d103a37b5b2b7399e17ba32bc3a1f60911b9101948501527f3c7465787420783d2232302220793d223338302220666f6e742d73697a653d2261017885015270189b111031b630b9b99e913632b33a111f60791b6101988501528b516101a9946105a1828783018d611657565b019384016a1022aa241e17ba32bc3a1f60a91b90526101b484017f3c7465787420783d223338302220793d223338302220666f6e742d73697a653d90528c6101d4947211189b111031b630b9b99e913934b3b43a111f60691b868201526101e7938051809386840192019161061592611657565b0191820152651e17b9bb339f60d11b6101ee82015203908101855261063e906101f4018561178d565b61064790611d03565b955191510461065590611d03565b935161066090611d03565b9161066a90611e47565b928851968796898801607b60f81b9052602188017f226e616d65223a202248696768657272727272727220436f6e76696374696f6e90526041880161202360f01b9052805190818b60438b019201916106c292611657565b61088b60f21b6043918901918201527f226465736372697074696f6e223a202241207265636f7264206f6620636f6e7660458201527f696374696f6e20696e20486967686572727272727272222c000000000000000060658201526e2261747472696275746573223a205b60881b607d8201527f7b2274726169745f74797065223a202245766f6c7574696f6e222c202276616c608c820152653ab2911d101160d11b60ac82018190528451909490919061078590839060b28401908e01611657565b019562089f4b60ea1b968760b282015260b581017f7b2274726169745f74797065223a2022416d6f756e74222c202276616c7565229052621d101160e91b60d5820152815191828c60d884019201916107dd92611657565b01908660d883015260db82017f7b2274726169745f74797065223a20225072696365222c202276616c7565223a905261101160f11b60fb83015251918260fd830161082792611657565b019360fd85015261010084017f7b2274726169745f74797065223a202254696d657374616d70222c202276616c905261012084015261012692815191828886840192019161087492611657565b61227d60f01b91019283015261174b60f21b6101288301527f22696d616765223a2022646174613a696d6167652f7376672b786d6c3b62617361012a83015263194d8d0b60e21b61014a830152805161014e9290916108da908390858401908901611657565b0190601160f91b9082015261014f8101607d60f81b9052036101308101825261015001610907908261178d565b61091090611e47565b91805180938382017f646174613a6170706c69636174696f6e2f6a736f6e3b6261736536342c00000090528051908185603d850192019161095092611657565b810103601d81018452603d01610966908461178d565b5191818392835282016109789161167a565b0390f35b845162461bcd60e51b81529081018490526013602482015272151bdad95b88191bd95cdb89dd08195e1a5cdd606a1b6044820152606490fd5b80fd5b5090346101cf5760203660031901126101cf576109d361169f565b600854926001600160a01b03928385166109fe57505016906001600160601b0360a01b161760085580f35b906020606492519162461bcd60e51b83528201526013602482015272105b1c9958591e481a5b9a5d1a585b1a5e9959606a1b6044820152fd5b83823461022157608036600319011261022157610a5261169f565b610a5a6116ba565b9060643567ffffffffffffffff8111610a9b5736602382011215610a9b57610a9893816024610a8e93369301359101611870565b91604435916119b9565b80f35b8480fd5b5091903461022157816003193601126102215760085481516306fdde0360e01b8152926001600160a01b0391821692909182858781875afa948515610cb0578395610c30575b508151906375c8e9bf60e11b825260209485838981845afa928315610bf257889185918795610bfc575b50815163c19d93fb60e01b815292839182905afa918215610bf2578592610b75575b505051926002841015610b625750610b579550815195869560608752606087019061167a565b938501528301520390f35b634e487b7160e01b815260218752602490fd5b9091508382813d8311610beb575b610b8d818361178d565b81010312610a9b5783519184830183811067ffffffffffffffff821117610bd857855280516002811015610bd45783528601519081168103610a9b57858201523880610b31565b8680fd5b634e487b7160e01b875260418a52602487fd5b503d610b83565b84513d87823e3d90fd5b92509350508581813d8311610c29575b610c16818361178d565b81010312610a9b57838891519338610b0f565b503d610c0c565b9094503d8084833e610c42818361178d565b810190602081830312610cac5780519067ffffffffffffffff8211610a9b570181601f82011215610cac57805190610c7982611854565b92610c868551948561178d565b82845260208383010111610a9b5790610ca59160208085019101611657565b9338610ae5565b8380fd5b505051903d90823e3d90fd5b5090346101cf57806003193601126101cf57610cd661169f565b9060243591821515809303610a9b576001600160a01b031692338414610d455750338452600560205280842083855260205280842060ff1981541660ff8416179055519081527f17307eab39ab6107e8899845ad3d59bd9653f200f220920489ca2b5937696c3160203392a380f35b6020606492519162461bcd60e51b8352820152601960248201527f4552433732313a20617070726f766520746f2063616c6c6572000000000000006044820152fd5b8284346109b557806003193601126109b557815191828260019360015494610dae86611705565b9182855260209687600182169182600014610e4b575050600114610def575b5050506109789291610de091038561178d565b5192828493845283019061167a565b9190869350600183527fb10e2d527612073b26eecdfd717e6a320cf44b4afac2b0732d9fcbe2b7fa0cf65b828410610e335750505082010181610de0610978610dcd565b8054848a018601528895508794909301928101610e1a565b60ff19168782015293151560051b86019093019350849250610de091506109789050610dcd565b50503461022157816003193601126102215760065490516001600160a01b039091168152602090f35b83346109b557806003193601126109b557610eb4611c26565b600680546001600160a01b0319811690915581906001600160a01b03167f8be0079c531659141344cd1fd0a4f28419497f9722a3daafe3b4186f6b6457e08280a380f35b50829034610221576020366003190112610221576001600160a01b03610f1c61169f565b16908115610f395760208480858581526003845220549051908152f35b608490602085519162461bcd60e51b8352820152602960248201527f4552433732313a2061646472657373207a65726f206973206e6f7420612076616044820152683634b21037bbb732b960b91b6064820152fd5b5091346109b55760203660031901126109b55750610fae60209235611993565b90516001600160a01b039091168152f35b5090346101cf5760803660031901126101cf57610fda61169f565b9067ffffffffffffffff60248035828111610bd45736602382011215610bd45761100c90369083818901359101611870565b60085490966001600160a01b039590918616330361129a576007549560001990818814611287576001928389016007551694851561124557600088815260026020526040902054611069906001600160a01b031615155b15611bda565b60008881526002602052604090205461108c906001600160a01b03161515611063565b85845260209960038b5287852084815401905588855260028b52878520876001600160601b0360a01b82541617905588885197867fddf252ad1be2c89b69c2b068fc378daa952ba7f163c4a11628f55a4df523b3ef8180a46110ed8761173f565b865289860191604435835287870194606435865260608801964288528a825260098d5289822098519b8c519485116112345750508b61112c8954611705565b601f81116111ec575b50508b90601f84116001146111835790600398999a9b84939293611178575b505082851b92881b1c19161786555b51908501555160028401555191015551908152f35b015191503880611154565b8881528c8120939b90601f198d16908e5b8282106111d5575050918c939160039a9b9c9d889694106111be575b50505050811b018655611163565b01519060f8848b1b161c19169055388080806111b0565b808986988294978701518155019701940190611194565b89835281832090601f860160051c820192861061122a575b601f0160051c019086905b82811061121f57508d9150611135565b83815501869061120f565b9091508190611204565b634e487b7160e01b83526041905281fd5b865162461bcd60e51b81526020818b01819052818701527f4552433732313a206d696e7420746f20746865207a65726f20616464726573736044820152606490fd5b5050634e487b7160e01b82525060118652fd5b845162461bcd60e51b81526020818901526011818501527027b7363c902434b3b432b939393939393960791b6044820152606490fd5b50346101cf5760203660031901126101cf5761131f9282913581526009602052206112fa816117af565b916001820154916003600282015491015491805195869560808752608087019061167a565b93602086015284015260608301520390f35b50503461022157816003193601126102215760085490516001600160a01b039091168152602090f35b50503461022157610a989061136e366116d0565b9192519261137b84611771565b8584526119b9565b83346109b557610a98611395366116d0565b916113a86113a38433611a01565b6118e5565b611ac9565b50346101cf57816003193601126101cf576113c661169f565b6024359290916001600160a01b03919082806113e187611993565b169416938085146114cd578033149081156114ae575b501561144657848652602052842080546001600160a01b0319168317905561141e83611993565b167f8c5be1e5ebec7d5bd14f71427d1e84f3dd0314c0f7b2291e5b200ac8c7c3b9258480a480f35b6020608492519162461bcd60e51b8352820152603d60248201527f4552433732313a20617070726f76652063616c6c6572206973206e6f7420746f60448201527f6b656e206f776e6572206f7220617070726f76656420666f7220616c6c0000006064820152fd5b90508652600560205281862033875260205260ff8287205416386113f7565b506020608492519162461bcd60e51b8352820152602160248201527f4552433732313a20617070726f76616c20746f2063757272656e74206f776e656044820152603960f91b6064820152fd5b5091346109b55760203660031901126109b55750610fae602092356118a7565b8284346109b557806003193601126109b5578151918282835461155c81611705565b9081845260209560019187600182169182600014610e4b575050600114611590575050506109789291610de091038561178d565b91908693508280527f290decd9548b62a8d60345a988386fc84ba6bc95484008f6362f93160ef3e5635b8284106115d35750505082010181610de0610978610dcd565b8054848a0186015288955087949093019281016115ba565b925050346101cf5760203660031901126101cf573563ffffffff60e01b81168091036101cf57602092506380ac58cd60e01b8114908115611646575b8115611635575b5015158152f35b6301ffc9a760e01b1490503861162e565b635b5e139f60e01b81149150611627565b60005b83811061166a5750506000910152565b818101518382015260200161165a565b9060209161169381518092818552858086019101611657565b601f01601f1916010190565b600435906001600160a01b03821682036116b557565b600080fd5b602435906001600160a01b03821682036116b557565b60609060031901126116b5576001600160a01b039060043582811681036116b5579160243590811681036116b5579060443590565b90600182811c92168015611735575b602083101461171f57565b634e487b7160e01b600052602260045260246000fd5b91607f1691611714565b6080810190811067ffffffffffffffff82111761175b57604052565b634e487b7160e01b600052604160045260246000fd5b6020810190811067ffffffffffffffff82111761175b57604052565b90601f8019910116810190811067ffffffffffffffff82111761175b57604052565b906040519182600082546117c281611705565b9081845260209460019160018116908160001461183257506001146117f3575b5050506117f19250038361178d565b565b600090815285812095935091905b81831061181a5750506117f193508201013880806117e2565b85548884018501529485019487945091830191611801565b925050506117f194925060ff191682840152151560051b8201013880806117e2565b67ffffffffffffffff811161175b57601f01601f191660200190565b92919261187c82611854565b9161188a604051938461178d565b8294818452818301116116b5578281602093846000960137010152565b6000818152600260205260409020546118ca906001600160a01b03161515611947565b6000908152600460205260409020546001600160a01b031690565b156118ec57565b60405162461bcd60e51b815260206004820152602d60248201527f4552433732313a2063616c6c6572206973206e6f7420746f6b656e206f776e6560448201526c1c881bdc88185c1c1c9bdd9959609a1b6064820152608490fd5b1561194e57565b60405162461bcd60e51b815260206004820152601860248201527f4552433732313a20696e76616c696420746f6b656e20494400000000000000006044820152606490fd5b6000908152600260205260409020546001600160a01b03166119b6811515611947565b90565b906119dd9392916119cd6113a38433611a01565b6119d8838383611ac9565b611fbf565b156119e457565b60405162461bcd60e51b8152806119fd60048201611c7e565b0390fd5b906001600160a01b038080611a1584611993565b16931691838314938415611a48575b508315611a32575b50505090565b611a3e919293506118a7565b1614388080611a2c565b909350600052600560205260406000208260005260205260ff604060002054169238611a24565b15611a7657565b60405162461bcd60e51b815260206004820152602560248201527f4552433732313a207472616e736665722066726f6d20696e636f72726563742060448201526437bbb732b960d91b6064820152608490fd5b90611af191611ad784611993565b6001600160a01b0393918416928492909183168414611a6f565b16918215611b895781611b0e91611b0786611993565b1614611a6f565b7fddf252ad1be2c89b69c2b068fc378daa952ba7f163c4a11628f55a4df523b3ef60008481526004602052604081206001600160601b0360a01b9081815416905583825260036020526040822060001981540190558482526040822060018154019055858252600260205284604083209182541617905580a4565b60405162461bcd60e51b8152602060048201526024808201527f4552433732313a207472616e7366657220746f20746865207a65726f206164646044820152637265737360e01b6064820152608490fd5b15611be157565b60405162461bcd60e51b815260206004820152601c60248201527f4552433732313a20746f6b656e20616c7265616479206d696e746564000000006044820152606490fd5b6006546001600160a01b03163303611c3a57565b606460405162461bcd60e51b815260206004820152602060248201527f4f776e61626c653a2063616c6c6572206973206e6f7420746865206f776e65726044820152fd5b60809060208152603260208201527f4552433732313a207472616e7366657220746f206e6f6e20455243373231526560408201527131b2b4bb32b91034b6b83632b6b2b73a32b960711b60608201520190565b90611cdb82611854565b611ce8604051918261178d565b8281528092611cf9601f1991611854565b0190602036910137565b806000917a184f03e93ff9f4daa797ed6e38ed64bf6a1f01000000000000000080821015611e39575b506d04ee2d6d415b85acef810000000080831015611e2a575b50662386f26fc1000080831015611e1b575b506305f5e10080831015611e0c575b5061271080831015611dfd575b506064821015611ded575b600a80921015611de3575b600190816021611d9b60018701611cd1565b95860101905b611dad575b5050505090565b600019019083906f181899199a1a9b1b9c1cb0b131b232b360811b8282061a835304918215611dde57919082611da1565b611da6565b9160010191611d89565b9190606460029104910191611d7e565b60049193920491019138611d73565b60089193920491019138611d66565b60109193920491019138611d57565b60209193920491019138611d45565b604093508104915038611d2c565b805115611fab576040516060810181811067ffffffffffffffff82111761175b57604052604081527f4142434445464748494a4b4c4d4e4f505152535455565758595a61626364656660208201527f6768696a6b6c6d6e6f707172737475767778797a303132333435363738392b2f604082015281519160029260028101809111611f95576003908190046001600160fe1b0381168103611f9557611ef2906002959492951b611cd1565b936020850193839284518501935b848110611f42575050505050600390510680600114611f2f57600214611f24575090565b603d90600019015390565b50603d9081600019820153600119015390565b8360049197929394959701918251600190603f9082828260121c16880101518453828282600c1c16880101518385015382828260061c168801015188850153168501015186820153019593929190611f00565b634e487b7160e01b600052601160045260246000fd5b50604051611fb881611771565b6000815290565b9293919290803b156120d4576120139460018060a01b039460405192839187630a85bd0160e11b9687855233600486015216602484015260448301526080606483015281806020998a95608483019061167a565b03916000988991165af1849181612094575b50612083575050503d60001461207b573d61203f81611854565b9061204d604051928361178d565b81528091833d92013e5b805191826120785760405162461bcd60e51b8152806119fd60048201611c7e565b01fd5b506060612057565b6001600160e01b0319161492509050565b9091508581813d83116120cd575b6120ac818361178d565b81010312610a9b57516001600160e01b031981168103610a9b579038612025565b503d6120a2565b505091505060019056fea264697066735822122031891611967afa2d8e6e154c33ce0c626bf37331a9028e3159f8618c689334ad64736f6c63430008170033","linkReferences":{}},"methodIdentifiers":{"approve(address,uint256)":"095ea7b3","balanceOf(address)":"70a08231","convictionDetails(uint256)":"4827eb8c","getApproved(uint256)":"081812fc","getHigherrrrrrrState()":"a39ff85c","higherrrrrrr()":"47d9e596","initialize(address)":"c4d66de8","isApprovedForAll(address,address)":"e985e9c5","mintConviction(address,string,uint256,uint256)":"500788f6","name()":"06fdde03","owner()":"8da5cb5b","ownerOf(uint256)":"6352211e","renounceOwnership()":"715018a6","safeTransferFrom(address,address,uint256)":"42842e0e","safeTransferFrom(address,address,uint256,bytes)":"b88d4fde","setApprovalForAll(address,bool)":"a22cb465","supportsInterface(bytes4)":"01ffc9a7","symbol()":"95d89b41","tokenURI(uint256)":"c87b56dd","transferFrom(address,address,uint256)":"23b872dd","transferOwnership(address)":"f2fde38b"},"id":47}