{"abi":[{"type":"constructor","inputs":[{"name":"_feeRecipient","type":"address","internalType":"address"},{"name":"_weth","type":"address","internalType":"address"},{"name":"_nonfungiblePositionManager","type":"address","internalType":"address"},{"name":"_swapRouter","type":"address","internalType":"address"}],"stateMutability":"nonpayable"},{"type":"receive","stateMutability":"payable"},{"type":"function","name":"CONVICTION_THRESHOLD","inputs":[],"outputs":[{"name":"","type":"uint256","internalType":"uint256"}],"stateMutability":"view"},{"type":"function","name":"MAX_TOTAL_SUPPLY","inputs":[],"outputs":[{"name":"","type":"uint256","internalType":"uint256"}],"stateMutability":"view"},{"type":"function","name":"MIN_ORDER_SIZE","inputs":[],"outputs":[{"name":"","type":"uint256","internalType":"uint256"}],"stateMutability":"view"},{"type":"function","name":"TOTAL_FEE_BPS","inputs":[],"outputs":[{"name":"","type":"uint256","internalType":"uint256"}],"stateMutability":"view"},{"type":"function","name":"WETH","inputs":[],"outputs":[{"name":"","type":"address","internalType":"address"}],"stateMutability":"view"},{"type":"function","name":"allowance","inputs":[{"name":"owner","type":"address","internalType":"address"},{"name":"spender","type":"address","internalType":"address"}],"outputs":[{"name":"","type":"uint256","internalType":"uint256"}],"stateMutability":"view"},{"type":"function","name":"approve","inputs":[{"name":"spender","type":"address","internalType":"address"},{"name":"amount","type":"uint256","internalType":"uint256"}],"outputs":[{"name":"","type":"bool","internalType":"bool"}],"stateMutability":"nonpayable"},{"type":"function","name":"balanceOf","inputs":[{"name":"account","type":"address","internalType":"address"}],"outputs":[{"name":"","type":"uint256","internalType":"uint256"}],"stateMutability":"view"},{"type":"function","name":"bondingCurve","inputs":[],"outputs":[{"name":"","type":"address","internalType":"contract BondingCurve"}],"stateMutability":"view"},{"type":"function","name":"burn","inputs":[{"name":"tokensToBurn","type":"uint256","internalType":"uint256"}],"outputs":[],"stateMutability":"nonpayable"},{"type":"function","name":"buy","inputs":[{"name":"recipient","type":"address","internalType":"address"},{"name":"refundRecipient","type":"address","internalType":"address"},{"name":"comment","type":"string","internalType":"string"},{"name":"expectedMarketType","type":"uint8","internalType":"enum IHigherrrrrrr.MarketType"},{"name":"minOrderSize","type":"uint256","internalType":"uint256"},{"name":"sqrtPriceLimitX96","type":"uint160","internalType":"uint160"}],"outputs":[{"name":"","type":"uint256","internalType":"uint256"}],"stateMutability":"payable"},{"type":"function","name":"convictionNFT","inputs":[],"outputs":[{"name":"","type":"address","internalType":"address"}],"stateMutability":"view"},{"type":"function","name":"currentExchangeRate","inputs":[],"outputs":[{"name":"","type":"uint256","internalType":"uint256"}],"stateMutability":"view"},{"type":"function","name":"decimals","inputs":[],"outputs":[{"name":"","type":"uint8","internalType":"uint8"}],"stateMutability":"view"},{"type":"function","name":"decreaseAllowance","inputs":[{"name":"spender","type":"address","internalType":"address"},{"name":"subtractedValue","type":"uint256","internalType":"uint256"}],"outputs":[{"name":"","type":"bool","internalType":"bool"}],"stateMutability":"nonpayable"},{"type":"function","name":"feeRecipient","inputs":[],"outputs":[{"name":"","type":"address","internalType":"address"}],"stateMutability":"view"},{"type":"function","name":"getCurrentPrice","inputs":[],"outputs":[{"name":"","type":"uint256","internalType":"uint256"}],"stateMutability":"view"},{"type":"function","name":"getEthBuyQuote","inputs":[{"name":"ethOrderSize","type":"uint256","internalType":"uint256"}],"outputs":[{"name":"","type":"uint256","internalType":"uint256"}],"stateMutability":"view"},{"type":"function","name":"getEthSellQuote","inputs":[{"name":"ethOrderSize","type":"uint256","internalType":"uint256"}],"outputs":[{"name":"","type":"uint256","internalType":"uint256"}],"stateMutability":"view"},{"type":"function","name":"getTokenBuyQuote","inputs":[{"name":"tokenOrderSize","type":"uint256","internalType":"uint256"}],"outputs":[{"name":"","type":"uint256","internalType":"uint256"}],"stateMutability":"view"},{"type":"function","name":"getTokenSellQuote","inputs":[{"name":"tokenOrderSize","type":"uint256","internalType":"uint256"}],"outputs":[{"name":"","type":"uint256","internalType":"uint256"}],"stateMutability":"view"},{"type":"function","name":"increaseAllowance","inputs":[{"name":"spender","type":"address","internalType":"address"},{"name":"addedValue","type":"uint256","internalType":"uint256"}],"outputs":[{"name":"","type":"bool","internalType":"bool"}],"stateMutability":"nonpayable"},{"type":"function","name":"initialize","inputs":[{"name":"_bondingCurve","type":"address","internalType":"address"},{"name":"_tokenURI","type":"string","internalType":"string"},{"name":"_name","type":"string","internalType":"string"},{"name":"_symbol","type":"string","internalType":"string"},{"name":"_priceLevels","type":"tuple[]","internalType":"struct IHigherrrrrrr.PriceLevel[]","components":[{"name":"price","type":"uint256","internalType":"uint256"},{"name":"name","type":"string","internalType":"string"}]},{"name":"_convictionNFT","type":"address","internalType":"address"}],"outputs":[],"stateMutability":"payable"},{"type":"function","name":"marketType","inputs":[],"outputs":[{"name":"","type":"uint8","internalType":"enum IHigherrrrrrr.MarketType"}],"stateMutability":"view"},{"type":"function","name":"name","inputs":[],"outputs":[{"name":"","type":"string","internalType":"string"}],"stateMutability":"view"},{"type":"function","name":"nonfungiblePositionManager","inputs":[],"outputs":[{"name":"","type":"address","internalType":"address"}],"stateMutability":"view"},{"type":"function","name":"numPriceLevels","inputs":[],"outputs":[{"name":"","type":"uint256","internalType":"uint256"}],"stateMutability":"view"},{"type":"function","name":"onERC721Received","inputs":[{"name":"","type":"address","internalType":"address"},{"name":"","type":"address","internalType":"address"},{"name":"","type":"uint256","internalType":"uint256"},{"name":"","type":"bytes","internalType":"bytes"}],"outputs":[{"name":"","type":"bytes4","internalType":"bytes4"}],"stateMutability":"view"},{"type":"function","name":"poolAddress","inputs":[],"outputs":[{"name":"","type":"address","internalType":"address"}],"stateMutability":"view"},{"type":"function","name":"priceLevels","inputs":[{"name":"","type":"uint256","internalType":"uint256"}],"outputs":[{"name":"price","type":"uint256","internalType":"uint256"},{"name":"name","type":"string","internalType":"string"}],"stateMutability":"view"},{"type":"function","name":"sell","inputs":[{"name":"tokensToSell","type":"uint256","internalType":"uint256"},{"name":"recipient","type":"address","internalType":"address"},{"name":"comment","type":"string","internalType":"string"},{"name":"expectedMarketType","type":"uint8","internalType":"enum IHigherrrrrrr.MarketType"},{"name":"minPayoutSize","type":"uint256","internalType":"uint256"},{"name":"sqrtPriceLimitX96","type":"uint160","internalType":"uint160"}],"outputs":[{"name":"","type":"uint256","internalType":"uint256"}],"stateMutability":"nonpayable"},{"type":"function","name":"state","inputs":[],"outputs":[{"name":"","type":"tuple","internalType":"struct IHigherrrrrrr.MarketState","components":[{"name":"marketType","type":"uint8","internalType":"enum IHigherrrrrrr.MarketType"},{"name":"marketAddress","type":"address","internalType":"address"}]}],"stateMutability":"view"},{"type":"function","name":"swapRouter","inputs":[],"outputs":[{"name":"","type":"address","internalType":"address"}],"stateMutability":"view"},{"type":"function","name":"symbol","inputs":[],"outputs":[{"name":"","type":"string","internalType":"string"}],"stateMutability":"view"},{"type":"function","name":"tokenURI","inputs":[],"outputs":[{"name":"","type":"string","internalType":"string"}],"stateMutability":"view"},{"type":"function","name":"totalSupply","inputs":[],"outputs":[{"name":"","type":"uint256","internalType":"uint256"}],"stateMutability":"view"},{"type":"function","name":"transfer","inputs":[{"name":"to","type":"address","internalType":"address"},{"name":"amount","type":"uint256","internalType":"uint256"}],"outputs":[{"name":"","type":"bool","internalType":"bool"}],"stateMutability":"nonpayable"},{"type":"function","name":"transferFrom","inputs":[{"name":"from","type":"address","internalType":"address"},{"name":"to","type":"address","internalType":"address"},{"name":"amount","type":"uint256","internalType":"uint256"}],"outputs":[{"name":"","type":"bool","internalType":"bool"}],"stateMutability":"nonpayable"},{"type":"function","name":"uniswapV3SwapCallback","inputs":[{"name":"amount0Delta","type":"int256","internalType":"int256"},{"name":"amount1Delta","type":"int256","internalType":"int256"},{"name":"","type":"bytes","internalType":"bytes"}],"outputs":[],"stateMutability":"nonpayable"},{"type":"event","name":"Approval","inputs":[{"name":"owner","type":"address","indexed":true,"internalType":"address"},{"name":"spender","type":"address","indexed":true,"internalType":"address"},{"name":"value","type":"uint256","indexed":false,"internalType":"uint256"}],"anonymous":false},{"type":"event","name":"HigherrrrrrMarketGraduated","inputs":[{"name":"tokenAddress","type":"address","indexed":true,"internalType":"address"},{"name":"poolAddress","type":"address","indexed":true,"internalType":"address"},{"name":"totalEthLiquidity","type":"uint256","indexed":false,"internalType":"uint256"},{"name":"totalTokenLiquidity","type":"uint256","indexed":false,"internalType":"uint256"},{"name":"lpPositionId","type":"uint256","indexed":false,"internalType":"uint256"},{"name":"marketType","type":"uint8","indexed":false,"internalType":"enum IHigherrrrrrr.MarketType"}],"anonymous":false},{"type":"event","name":"HigherrrrrrTokenBuy","inputs":[{"name":"buyer","type":"address","indexed":true,"internalType":"address"},{"name":"recipient","type":"address","indexed":true,"internalType":"address"},{"name":"totalEth","type":"uint256","indexed":false,"internalType":"uint256"},{"name":"ethFee","type":"uint256","indexed":false,"internalType":"uint256"},{"name":"ethSold","type":"uint256","indexed":false,"internalType":"uint256"},{"name":"tokensBought","type":"uint256","indexed":false,"internalType":"uint256"},{"name":"buyerTokenBalance","type":"uint256","indexed":false,"internalType":"uint256"},{"name":"comment","type":"string","indexed":false,"internalType":"string"},{"name":"totalSupply","type":"uint256","indexed":false,"internalType":"uint256"},{"name":"marketType","type":"uint8","indexed":false,"internalType":"enum IHigherrrrrrr.MarketType"}],"anonymous":false},{"type":"event","name":"HigherrrrrrTokenFees","inputs":[{"name":"feeRecipient","type":"address","indexed":true,"internalType":"address"},{"name":"fee","type":"uint256","indexed":false,"internalType":"uint256"}],"anonymous":false},{"type":"event","name":"HigherrrrrrTokenSell","inputs":[{"name":"seller","type":"address","indexed":true,"internalType":"address"},{"name":"recipient","type":"address","indexed":true,"internalType":"address"},{"name":"totalEth","type":"uint256","indexed":false,"internalType":"uint256"},{"name":"ethFee","type":"uint256","indexed":false,"internalType":"uint256"},{"name":"ethBought","type":"uint256","indexed":false,"internalType":"uint256"},{"name":"tokensSold","type":"uint256","indexed":false,"internalType":"uint256"},{"name":"sellerTokenBalance","type":"uint256","indexed":false,"internalType":"uint256"},{"name":"comment","type":"string","indexed":false,"internalType":"string"},{"name":"totalSupply","type":"uint256","indexed":false,"internalType":"uint256"},{"name":"marketType","type":"uint8","indexed":false,"internalType":"enum IHigherrrrrrr.MarketType"}],"anonymous":false},{"type":"event","name":"HigherrrrrrTokenTransfer","inputs":[{"name":"from","type":"address","indexed":true,"internalType":"address"},{"name":"to","type":"address","indexed":true,"internalType":"address"},{"name":"amount","type":"uint256","indexed":false,"internalType":"uint256"},{"name":"fromTokenBalance","type":"uint256","indexed":false,"internalType":"uint256"},{"name":"toTokenBalance","type":"uint256","indexed":false,"internalType":"uint256"},{"name":"totalSupply","type":"uint256","indexed":false,"internalType":"uint256"}],"anonymous":false},{"type":"event","name":"Initialized","inputs":[{"name":"version","type":"uint8","indexed":false,"internalType":"uint8"}],"anonymous":false},{"type":"event","name":"Transfer","inputs":[{"name":"from","type":"address","indexed":true,"internalType":"address"},{"name":"to","type":"address","indexed":true,"internalType":"address"},{"name":"value","type":"uint256","indexed":false,"internalType":"uint256"}],"anonymous":false},{"type":"error","name":"AddressZero","inputs":[]},{"type":"error","name":"EthAmountTooSmall","inputs":[]},{"type":"error","name":"EthTransferFailed","inputs":[]},{"type":"error","name":"InitialOrderSizeTooLarge","inputs":[]},{"type":"error","name":"InsufficientFunds","inputs":[]},{"type":"error","name":"InsufficientLiquidity","inputs":[]},{"type":"error","name":"InvalidMarketType","inputs":[]},{"type":"error","name":"InvalidPriceLevels","inputs":[]},{"type":"error","name":"MarketAlreadyGraduated","inputs":[]},{"type":"error","name":"MarketNotGraduated","inputs":[]},{"type":"error","name":"NoPriceLevels","inputs":[]},{"type":"error","name":"OnlyPool","inputs":[]},{"type":"error","name":"OnlyWeth","inputs":[]},{"type":"error","name":"SlippageBoundsExceeded","inputs":[]},{"type":"error","name":"TooManyPriceLevels","inputs":[]}],"bytecode":{"object":"0x61010034620002dd57601f620055e538819003918201601f191683019291906001600160401b03841183851017620002e2578160809284926040968752833981010312620002dd576200005281620002f8565b906200006160208201620002f8565b6200007c606062000074868501620002f8565b9301620002f8565b926001600160a01b0380821615620002cc5780831615620002cc5780841615620002cc57841615620002bb5760e05260805260a05260c052516152d790816200030e823960805181818161053a01528181610a86015281816111c00152818161120301528181611289015281816112dc015281816117a3015281816117d3015281816117f60152818161183301528181611b1701528181611b5a01528181611bc401528181611c1e01528181611c4e01528181611c7201528181611ca501528181611cd801528181611d4b0152818161206b01528181612353015281816123970152818161241d0152818161246d0152818161267e0152818161307f01528181613d2c01528181613dcc01528181613f8001528181613fc30152818161402d01528181614087015281816140b7015281816140db0152818161410e01528181614141015281816141b2015281816144b3015281816147560152818161479a015281816148230152614877015260a0518181816104f501528181610aec01528181610b1601528181610cc8015281816118af01528181611ba301528181611bf601528181611e900152818161400c0152818161405f01526142fb015260c051818181610341015281816112500152818161134d015281816123e4015281816124d30152818161301201526147df015260e051818181610fe0015281816110190152818161141f0152818161218d015281816121c401528181612599015281816125d001528181612ef101528181613233015281816145cb015261497e0152f35b8451639fabe1c160e01b8152600490fd5b8551639fabe1c160e01b8152600490fd5b600080fd5b634e487b7160e01b600052604160045260246000fd5b51906001600160a01b0382168203620002dd5756fe60806040526004361015610023575b361561001957600080fd5b610021613dc9565b005b6000803560e01c806306fdde0314613681578063095ea7b31461365a578063150b7a02146135df5780631755ff21146135b657806318160ddd1461359857806323b872dd146134de5780632dd48909146134b3578063313ce5671461349757806333039d3d1461347057806336480dd5146133cc578063395093511461337c5780633c130d90146132ac57806342966c6814613262578063469048401461321d5780634bdda510146132005780635474f0af146131d75780636037e3a214612d9a5780636c1f20d114612d295780636f28507c14612d0d57806370a0823114612cd4578063776b5289146114b5578063782fd0841461085b578063810a94d7146107ea5780638321d1f6146107cc57806395d89b41146106e9578063a368497714610640578063a457c2d71461059b578063a9059cbb14610569578063ad5c464814610524578063b44a2722146104df578063b69f9d5614610409578063c19d93fb14610370578063c31c9c071461032b578063d3f82d8e1461030b578063dd62ed3e146102bc578063eb91d37e14610299578063ebfb4f4a14610241578063eff1d50e146102185763fa461e33146101dc575061000e565b34610215576060366003190112610215576044356001600160401b0381116102115761020c90369060040161372f565b505080f35b5080fd5b80fd5b50346102155780600319360112610215576097546040516001600160a01b039091168152602090f35b503461021557602036600319011261021557600435609a548110156102115761026990613a25565b50610278600182549201613920565b9061029560405192839283526040602084015260408301906136ad565b0390f35b503461021557806003193601126102155760206102b4613cda565b604051908152f35b5034610215576040366003190112610215576102d66136ed565b60406102e0613703565b9260018060a01b03809316815260346020522091166000526020526020604060002054604051908152f35b5034610215578060031936011261021557602060405164174876e8008152f35b50346102155780600319360112610215576040517f00000000000000000000000000000000000000000000000000000000000000006001600160a01b03168152602090f35b5034610215578060031936011261021557806020604051610390816137e7565b828152015260ff60975460a01c1660028110156103f55760409150806103e457305b602083516103bf816137e7565b8381520160018060a01b0380921681526103db8451809461375c565b51166020820152f35b6099546001600160a01b03166103b2565b634e487b7160e01b82526021600452602482fd5b503461021557602090816003193601126102155760975460ff8160a01c1660028110156104cb576001146104b95782603554604460405180948193631ccc5c5960e21b83526004830152600435602483015260018060a01b03165afa9182156104ad579161047b575b50604051908152f35b90508181813d83116104a6575b6104928183613839565b810103126104a1575138610472565b600080fd5b503d610488565b604051903d90823e3d90fd5b60405163032c737760e31b8152600490fd5b634e487b7160e01b83526021600452602483fd5b50346102155780600319360112610215576040517f00000000000000000000000000000000000000000000000000000000000000006001600160a01b03168152602090f35b50346102155780600319360112610215576040517f00000000000000000000000000000000000000000000000000000000000000006001600160a01b03168152602090f35b5034610215576040366003190112610215576105906105866136ed565b6024359033614ae1565b602060405160018152f35b5034610215576040366003190112610215576105b56136ed565b60406024359233815260346020522060018060a01b038216600052602052604060002054918083106105ed57610590920390336149df565b60405162461bcd60e51b815260206004820152602560248201527f45524332303a2064656372656173656420616c6c6f77616e63652062656c6f77604482015264207a65726f60d81b6064820152608490fd5b503461021557806003193601126102155760ff60975460a01c1660028110156103f5576001146104b957308152603360205260408120544791662386f26fc100008084106106e1575b50670de0b6b3a7640000918281029281840414901517156106cd575081156106b75760209160405191048152f35b634e487b7160e01b600052601260045260246000fd5b634e487b7160e01b81526011600452602490fd5b925038610689565b503461021557806003193601126102155760405160375460008261070c83613769565b91828252602093600190856001821691826000146107ac57505060011461074f575b5061073b92500383613839565b6102956040519282849384528301906136ad565b84915060376000527f42a7b7dd785cd69714a189dffb3fd7d7174edc9ece837694ce50f7078f7c31ae906000915b85831061079457505061073b93508201018561072e565b8054838901850152879450869390920191810161077d565b60ff19168582015261073b95151560051b850101925087915061072e9050565b50346102155780600319360112610215576020609b54604051908152f35b503461021557602090816003193601126102155760975460ff8160a01c1660028110156104cb576001146104b95782603554604460405180948193633079372f60e21b83526004830152600435602483015260018060a01b03165afa9182156104ad579161047b5750604051908152f35b5060c0366003190112610215576108706136ed565b90610879613703565b906044356001600160401b038111610211576108999036906004016139de565b60643591600283101561021557506108af613719565b9060006108ba614dbb565b60ff60975460a01c169360028510156103f55784036114a35764174876e8003410611491576001600160a01b0386161561147f578093819582946001849314611199575b5060975460ff8160a01c1660028110156111855715610ee7575b5050610a71575b69d3c21bcecceda100000085101580610a5d575b6109ac575b60209561099c7f90ab8fe2236bc2790ca3172ce5ecce2251c7eb4f791cb4cc58fa1a654d7e819f936040889460018060a01b038516815260338b522054906035549060ff60975460a01c169260405196879660018060a01b03169a339a3489613b6b565b0390a36001606555604051908152f35b6109b4613a75565b6020610a026109c1613cda565b609c54604051632803c47b60e11b81526001600160a01b038c81166004830152608060248301529095869491909216928492889284929160848401906136ad565b908d6044840152606483015203925af18015610a5257610a23575b50610938565b602090819392933d8311610a4b575b610a3c8183613839565b810103126104a1579038610a1d565b503d610a32565b6040513d84823e3d90fd5b50609c546001600160a01b03161515610933565b6097805460ff60a01b1916600160a01b1790557f0000000000000000000000000000000000000000000000000000000000000000476001600160a01b038216803b15610ed857604051630d0e30db60e41b8152848160048186865af18015610edc57908591610ec4575b5050610ae630614e71565b610b11827f000000000000000000000000000000000000000000000000000000000000000083615102565b610b3b7f000000000000000000000000000000000000000000000000000000000000000030614f5d565b30811015610ebd57825b30821015610eb85750305b30821015610ea65782905b30831015610e9f576aa56fa5b99019a5c8000000925b609954604051633850c7bd60e01b8152916001600160a01b039091169060e083600481855afa928315610e94578993610e5d575b50301115610e4b57876d13c4b57968ceb7aab7ea377e80c95b6001600160a01b03908116931691838303610dbe575b5050505060405194610be586613802565b6001600160a01b039081168652908116602086019081526101f46040808801918252620d899f1960608901908152620d89a06080808b0191825260a08b0197885260c08b0198895260e08b018c81526101008c018d8152306101208e01908152426101408f019081529651634418b22b60e11b81529d518a1660048f01529751891660248e0152955162ffffff1660448d01529251600290810b60648d0152915190910b60848b0152955160a48a0152955160c4890152945160e488015251610104870152518116610124860152915161014485015290839061016490829087907f0000000000000000000000000000000000000000000000000000000000000000165af1918215610db3578392610d66575b50609954609754604080519384526aa56fa5b99019a5c800000060208501528301939093526001600160a01b031691610d3b90606083019060a01c60ff1661375c565b7f03f60da5a7cd92c2eb1a3d7b468a95ecace1e0a3f152dbf3c40881b9044c9efa60803092a361091f565b9091506080813d608011610dab575b81610d8260809383613839565b81010312610da757602081519101516001600160801b03811603610da7579038610cf8565b8280fd5b3d9150610d75565b6040513d85823e3d90fd5b604092849260c49285519687958694630251596160e31b865230600487015211602485015260646044850152606484015260a060848401528160a48401525af18015610e4057610e11575b808781610bd4565b604090813d8311610e39575b610e278183613839565b81010312610e355738610e09565b8580fd5b503d610e1d565b6040513d89823e3d90fd5b876a0cf330de50b81bb3db441b610bbe565b610e8091935060e03d60e011610e8d575b610e788183613839565b810190613c69565b5050505050509138610ba5565b503d610e6e565b6040513d8b823e3d90fd5b8392610b71565b6aa56fa5b99019a5c800000090610b5b565b610b50565b3092610b45565b610ecd906137d4565b610ed8578338610adb565b8380fd5b6040513d87823e3d90fd5b34975095509193508391829150612710610f0088613bc8565b0494610f0c8634613b2e565b60355460405163486b050760e11b8152600481018290526024810192909252976020826044816001600160a01b0385165afa91821561117a578692611146575b5081986084358310611135576b0295be96e640669720000000928382810311611121578184038114611118575b8184031061105c575b5050509083919286610f96899a998c614f10565b80610fd9575b5080610fa9575b50610918565b8280929181925af1610fb9613b3b565b5015610fc757813880610fa3565b604051630db2c7f160e31b8152600490fd5b92808080867f00000000000000000000000000000000000000000000000000000000000000005af1611009613b3b565b5015610fc75760405192835284927f00000000000000000000000000000000000000000000000000000000000000006001600160a01b03169060008051602061526283398151915290602090a238610f9c565b60405163447df22960e01b815260048101829052920360248301819052939950929750955060209186915060449082906001600160a01b03165afa938415610a525782946110e4575b50816110be6127106110b687613bc8565b048096613b21565b968734116110d2575b600190913880610f82565b91506110de8734613b2e565b916110c7565b9093506020813d602011611110575b8161110060209383613839565b810103126104a1575192386110a5565b3d91506110f3565b60019450610f79565b634e487b7160e01b88526011600452602488fd5b60405162be12ab60e31b8152600490fd5b9091506020813d602011611172575b8161116260209383613839565b810103126104a157519038610f4c565b3d9150611155565b6040513d88823e3d90fd5b634e487b7160e01b85526021600452602485fd5b9550955092506127106111ab34613bc8565b04926111b78434613b2e565b948461141d575b7f00000000000000000000000000000000000000000000000000000000000000006001600160a01b03163b15610da757604051630d0e30db60e41b815283816004818a7f00000000000000000000000000000000000000000000000000000000000000006001600160a01b03165af180156113ff5761140a575b5060405163095ea7b360e01b81526001600160a01b037f00000000000000000000000000000000000000000000000000000000000000001660048201526024810187905260208180604481010381877f00000000000000000000000000000000000000000000000000000000000000006001600160a01b03165af180156113ff576113bf575b50602061134891604051906112d2826137a3565b6001600160a01b037f00000000000000000000000000000000000000000000000000000000000000008116835230848401526101f46040808501919091528c82166060850152608084018b905260843560a0850152911660c0830152516304e45aaf60e01b815292839182919060048301613bfe565b0381867f00000000000000000000000000000000000000000000000000000000000000006001600160a01b03165af1908115610db357839161138d575b5095386108fe565b90506020813d6020116113b7575b816113a860209383613839565b810103126104a1575138611385565b3d915061139b565b6020813d6020116113f7575b816113d860209383613839565b81010312610ed857611348916113ef602092613bf1565b5091506112be565b3d91506113cb565b6040513d86823e3d90fd5b611416909391936137d4565b9138611238565b7f00000000000000000000000000000000000000000000000000000000000000008380808089855af161144e613b3b565b5015610fc7576040518681526001600160a01b039091169060008051602061526283398151915290602090a26111be565b604051639fabe1c160e01b8152600490fd5b6040516303c2e61b60e61b8152600490fd5b60405163b7c0802f60e01b8152600490fd5b5060c0366003190112610215576114ca6136ed565b6024356001600160401b038111610da7576114e99036906004016139de565b6044356001600160401b038111610ed8576115089036906004016139de565b916064356001600160401b038111611f6f576115289036906004016139de565b916001600160401b0360843511611f6f57366023608435011215611f6f576001600160401b036084356004013511611f6f573660246084356004013560051b608435010111611f6f57611579613719565b9285549460ff8660081c161595868097612cc7575b8015612cb0575b15612c545760ff198116600117885586612c43575b506001600160a01b0384161561147f576115d360ff885460081c166115ce81614e11565b614e11565b8051906001600160401b038211612c2f576115ef603654613769565b601f8111612be0575b50602090601f8311600114612b5957611629929189918361297a575b50508160011b916000199060031b1c19161790565b6036555b8051906001600160401b038211612b4557611649603754613769565b601f8111612af6575b50602090601f8311600114612a6f57611682929188918361297a5750508160011b916000199060031b1c19161790565b6037555b61169a60ff865460081c166115ce81614e11565b60016065556097805460ff60a01b191690558051906001600160401b038211612a5b576116c8609854613769565b601f8111612a0c575b50602090601f831160011461298557611701929187918361297a5750508160011b916000199060031b1c19161790565b6098555b60018060a01b03166001600160601b0360a01b609754161760975560843560040135156129685760046084350135609b819055680100000000000000001061295457609a5460843560040135609a55806084356004013510612861575b50609a8352827f44da158ba27f9252712a74ff6a55c5d531f69609f1f6e7f17c4443a8e2089be46084356024015b6084356004013583106126a857505050307f00000000000000000000000000000000000000000000000000000000000000006001600160a01b031610156126a2577f00000000000000000000000000000000000000000000000000000000000000005b307f00000000000000000000000000000000000000000000000000000000000000006001600160a01b0316101561267c57305b6001600160a01b038281167f00000000000000000000000000000000000000000000000000000000000000009091160361266a576d13c4b57968ceb7aab7ea377e80c9905b6040516309f56ab160e11b81526001600160a01b03938416600482015290831660248201526101f460448201529082166064820152906020908290608490829088907f0000000000000000000000000000000000000000000000000000000000000000165af19081156113ff578491612628575b5060018060a01b03166001600160601b0360a01b60995416176099553461195a575b60018060a01b03166001600160601b0360a01b609c541617609c556119235780f35b61ff001981541681557f7f26b83ff96e1f2b6a682f133852f6798a09c465da95921460cefb3847402498602060405160018152a180f35b6040516119668161381e565b8381526000611973614dbb565b60975490600260ff8360a01c1610156126125760ff8260a01c166114a35764174876e800341061149157331561147f57600092838493600160ff879260a01c161461232d575b609754600260ff8260a01c1610156111855760ff8160a01c16156120aa575b50611b01575b69d3c21bcecceda100000081101580611aed575b611a54575b611a4760407f90ab8fe2236bc2790ca3172ce5ecce2251c7eb4f791cb4cc58fa1a654d7e819f94338152603360205220549260355460ff60975460a01c1691604051958695339a339a3489613b6b565b0390a36001606555611901565b611a5c613a75565b6020611aa1611a69613cda565b9260018060a01b03609c54169087604051809681958294632803c47b60e11b84523360048501526080602485015260848401906136ad565b90896044840152606483015203925af180156113ff57611ac2575b506119f7565b602090813d8311611ae6575b611ad88183613839565b810103126104a15738611abc565b503d611ace565b50609c546001600160a01b031615156119f2565b6097805460ff60a01b1916600160a01b179055477f00000000000000000000000000000000000000000000000000000000000000006001600160a01b03163b15610ed857604051630d0e30db60e41b81528481600481857f00000000000000000000000000000000000000000000000000000000000000006001600160a01b03165af18015610edc57908591612096575b5050611b9d30614e71565b611bf1817f00000000000000000000000000000000000000000000000000000000000000007f00000000000000000000000000000000000000000000000000000000000000006001600160a01b0316615102565b611c1b7f000000000000000000000000000000000000000000000000000000000000000030614f5d565b307f00000000000000000000000000000000000000000000000000000000000000006001600160a01b0316101561208f577f0000000000000000000000000000000000000000000000000000000000000000905b307f00000000000000000000000000000000000000000000000000000000000000006001600160a01b0316101561206957305b307f00000000000000000000000000000000000000000000000000000000000000006001600160a01b0316101561205857815b307f00000000000000000000000000000000000000000000000000000000000000006001600160a01b03161015612051576aa56fa5b99019a5c8000000915b609954604051633850c7bd60e01b81526001600160a01b039091169060e081600481855afa908115612046578a91612021575b50307f00000000000000000000000000000000000000000000000000000000000000006001600160a01b03161015612010576d13c4b57968ceb7aab7ea377e80c95b6001600160a01b0381811690831603611f7b575b50505060405194611dad86613802565b6001600160a01b039081168652908116602086019081526101f46040808801918252620d899f1960608901908152620d89a06080808b0191825260a08b0197885260c08b0198895260e08b018e81526101008c018f8152306101208e01908152426101408f019081529651634418b22b60e11b81529d518a1660048f01529751891660248e0152955162ffffff1660448d01529251600290810b60648d0152915190910b60848b0152955160a48a0152955160c4890152945160e488015251610104870152518116610124860152915161014485015290839061016490829089907f0000000000000000000000000000000000000000000000000000000000000000165af1918215610edc578592611f2e575b50609954609754604080519384526aa56fa5b99019a5c800000060208501528301939093526001600160a01b031691611f0390606083019060a01c60ff1661375c565b7f03f60da5a7cd92c2eb1a3d7b468a95ecace1e0a3f152dbf3c40881b9044c9efa60803092a36119de565b9091506080813d608011611f73575b81611f4a60809383613839565b81010312611f6f57602081519101516001600160801b03811603611f6f579038611ec0565b8480fd5b3d9150611f3d565b60408051630251596160e31b81523060048201526001600160a01b03928316929093168210602484015260646044840181905283019190915260a0608483015260a482018b90529091829060c49082908d905af18015610e9457611fe1575b8080611d9d565b604090813d8311612009575b611ff78183613839565b810103126120055738611fda565b8780fd5b503d611fed565b6a0cf330de50b81bb3db441b611d89565b61203a915060e03d60e011610e8d57610e788183613839565b50505050505038611d47565b6040513d8c823e3d90fd5b8291611d14565b6aa56fa5b99019a5c8000000611cd5565b7f0000000000000000000000000000000000000000000000000000000000000000611ca2565b3090611c6f565b61209f906137d4565b610ed8578338611b92565b93945050506004969594935082839034916127106120c734613bc8565b04946120d38634613b2e565b60355460405163486b050760e11b81529c8d0181905260248d01919091529060208c6044816001600160a01b0385165afa9182156123225788999a9b9c899899936122eb575b508299611135576b0295be96e6406697200000009283828103116122d55781840381146122cc575b81840310612207575b505050908561215b88949833614f10565b80612185575b5080156119d857600080808093335af1612179613b3b565b5015610fc757386119d8565b6000808080847f00000000000000000000000000000000000000000000000000000000000000005af16121b6613b3b565b5015610fc7576040519081527f00000000000000000000000000000000000000000000000000000000000000006001600160a01b03169060008051602061526283398151915290602090a238612161565b60405163447df22960e01b815260048101829052920360248301819052985090965091925060209186915060449082906001600160a01b03165afa9384156122c05760009461228c575b5061226961271061226186613bc8565b048095613b21565b9081341161227c575b600138808061214a565b506122878134613b2e565b612272565b9093506020813d6020116122b8575b816122a860209383613839565b810103126104a157519238612251565b3d915061229b565b6040513d6000823e3d90fd5b60019450612141565b634e487b7160e01b600052601160045260246000fd5b975091506020873d60201161231a575b8161230860209383613839565b810103126104a1578896519138612119565b3d91506122fb565b6040513d8a823e3d90fd5b945050915061271061233e34613bc8565b049161234a8334613b2e565b9383612591575b7f00000000000000000000000000000000000000000000000000000000000000006001600160a01b03163b156104a157604051630d0e30db60e41b8152600081600481897f00000000000000000000000000000000000000000000000000000000000000006001600160a01b03165af180156122c05761257d575b5060405163095ea7b360e01b81526001600160a01b037f00000000000000000000000000000000000000000000000000000000000000001660048201526024810186905260208180604481010381877f00000000000000000000000000000000000000000000000000000000000000006001600160a01b03165af180156113ff57612544575b506124ce6020604051612464816137a3565b60018060a01b037f000000000000000000000000000000000000000000000000000000000000000016815230828201526101f460408201523360608201528760808201528560a08201528560c0820152604051809381926304e45aaf60e01b835260048301613bfe565b0381877f00000000000000000000000000000000000000000000000000000000000000006001600160a01b03165af19081156113ff578491612512575b50906119b9565b90506020813d60201161253c575b8161252d60209383613839565b810103126104a157513861250b565b3d9150612520565b6020813d602011612575575b8161255d60209383613839565b81010312610ed85761256e90613bf1565b5038612452565b3d9150612550565b6125889193506137d4565b600091386123cc565b6000808080877f00000000000000000000000000000000000000000000000000000000000000005af16125c2613b3b565b5015610fc7576040518481527f00000000000000000000000000000000000000000000000000000000000000006001600160a01b03169060008051602061526283398151915290602090a2612351565b634e487b7160e01b600052602160045260246000fd5b90506020813d602011612662575b8161264360209383613839565b81010312610ed857516001600160a01b0381168103610ed857386118df565b3d9150612636565b6a0cf330de50b81bb3db441b9061186b565b7f0000000000000000000000000000000000000000000000000000000000000000611826565b306117f3565b60843536036062190181351215610e355780356084350160248101358355604481013560421982360301811215612005576001600160401b03602482840101351161200557602481830101353603604482840101136120055761270e6001850154613769565b601f811161281a575b508790601f602482850101351160011461278457926127626002936020936001968c9160248285010135612773575b5060249192010135908160011b916000199060031b1c19161790565b848601555b01920192019190611790565b838201016044013591506024612746565b91906001850189526020892090895b83850160240135601f191681106127fd5750600194600294602094919387936024939190828401850135601f198116106127d9575b5050010135811b0184860155612767565b604460001960f887878701013560031b161c199185850101013516905538806127c8565b909160206001819260448689890101013581550193019101612793565b6001850160009081526020908190206128519285850160240135601f810160051c83019311612857575b601f0160051c0190613bb1565b38612717565b9091508190612844565b6001600160ff1b0381811682036129405760046084350135908116900361292c57609a84527f44da158ba27f9252712a74ff6a55c5d531f69609f1f6e7f17c4443a8e2089be46084356004013560011b81015b8260011b820181106128c7575050611762565b80866002925586600182016128dc8154613769565b806128eb575b505050016128b4565b601f8111600114612905575060009150555b8638806128e2565b90806000918452612925601f60208620940160051c840160018501613bb1565b55556128fd565b634e487b7160e01b84526011600452602484fd5b634e487b7160e01b85526011600452602485fd5b634e487b7160e01b83526041600452602483fd5b60405163e9f6388d60e01b8152600490fd5b015190503880611614565b609887528692917f2237a976fa961f5921fd19f2b03c925c725d77b20ce8f790c19709c03de4d814915b601f19841685106129f1576001945083601f198116106129d8575b505050811b01609855611705565b015160001960f88460031b161c191690553880806129ca565b818101518355602094850194600190930192909101906129af565b612a559060986000527f2237a976fa961f5921fd19f2b03c925c725d77b20ce8f790c19709c03de4d814601f850160051c8101916020861061285757601f0160051c0190613bb1565b386116d1565b634e487b7160e01b86526041600452602486fd5b603788528792917f42a7b7dd785cd69714a189dffb3fd7d7174edc9ece837694ce50f7078f7c31ae915b601f1984168510612adb576001945083601f19811610612ac2575b505050811b01603755611686565b015160001960f88460031b161c19169055388080612ab4565b81810151835560209485019460019093019290910190612a99565b612b3f9060376000527f42a7b7dd785cd69714a189dffb3fd7d7174edc9ece837694ce50f7078f7c31ae601f850160051c8101916020861061285757601f0160051c0190613bb1565b38611652565b634e487b7160e01b87526041600452602487fd5b603689528892917f4a11f94e20a93c79f6ec743a1954ec4fc2c08429ae2122118bf234b2185c81b8915b601f1984168510612bc5576001945083601f19811610612bac575b505050811b0160365561162d565b015160001960f88460031b161c19169055388080612b9e565b81810151835560209485019460019093019290910190612b83565b612c299060366000527f4a11f94e20a93c79f6ec743a1954ec4fc2c08429ae2122118bf234b2185c81b8601f850160051c8101916020861061285757601f0160051c0190613bb1565b386115f8565b634e487b7160e01b88526041600452602488fd5b61ffff1916610101178755386115aa565b60405162461bcd60e51b815260206004820152602e60248201527f496e697469616c697a61626c653a20636f6e747261637420697320616c72656160448201526d191e481a5b9a5d1a585b1a5e995960921b6064820152608490fd5b50303b1580156115955750600160ff821614611595565b50600160ff82161061158e565b5034610215576020366003190112610215576020906040906001600160a01b03612cfc6136ed565b168152603383522054604051908152f35b5034610215578060031936011261021557602060405160648152f35b503461021557602090816003193601126102155760975460ff8160a01c1660028110156104cb576001146104b9578260355460446040518094819363486b050760e11b83526004830152600435602483015260018060a01b03165afa9182156104ad579161047b5750604051908152f35b50346102155760c036600319011261021557600435612db7613703565b6044356001600160401b038111610ed857612dd69036906004016139de565b91606435926002841015611f6f5760843591612df0613719565b93612df9614dbb565b60ff60975460a01c169560028710156131c35786036114a35733875260209660338852604081205483116131b1576001600160a01b0382811696909590871561147f576001839914612ff5575b5060975460ff8160a01c166002811015612fe157908a9115612f55575b50505080612710612e7389613bc8565b0495612e7f878a613b2e565b93849188612eed575b5082809281925af1612e98613b3b565b5015610fc7577fae28f1578b161b48061c84304d1308534c8f73cb5f0861a5c929086a01d39e2b936040828861099c945260338b522054906035549060ff60975460a01c1692604051968796339a8d89613b6b565b92507f00000000000000000000000000000000000000000000000000000000000000009150838080808b865af1612f22613b3b565b5015610fc75783858194928a6000805160206152628339815191528f85979686976040519485521692a292509250612e88565b8793995060446035546040519586938492633079372f60e21b84526004840152896024840152165afa918215612322578892612fb2575b5081106111355764174876e800811061149157612fa98333614cc2565b95388881612e63565b9091508881813d8311612fda575b612fca8183613839565b810103126104a157519038612f8c565b503d612fc0565b634e487b7160e01b84526021600452602484fd5b909750613003843033614ae1565b60405163095ea7b360e01b81527f00000000000000000000000000000000000000000000000000000000000000006001600160a01b03811660048301526024820186905291908a8160448187305af180156113ff57928a928c928a969561316c575b50906130e1918660405191613079836137a3565b308352817f0000000000000000000000000000000000000000000000000000000000000000169687878501526101f460408501523060608501528b608085015260a08401521660c0820152856040519788809581946304e45aaf60e01b835260048301613bfe565b0393165af1928315610a5257829361313d575b50803b1561021157818091602460405180948193632e1a7d4d60e01b83528860048401525af18015610a525761312e575b50909638612e46565b613137906137d4565b38613125565b9092508981813d8311613165575b6131558183613839565b81010312610211575191386130f4565b503d61314b565b928092959650839194503d83116131aa575b6131888183613839565b81010312610ed8576130e18894938b936131a28e94613bf1565b509091613065565b503d61317e565b60405163bb55fd2760e01b8152600490fd5b634e487b7160e01b88526021600452602488fd5b5034610215578060031936011261021557609c546040516001600160a01b039091168152602090f35b503461021557806003193601126102155760206040516103e88152f35b50346102155780600319360112610215576040517f00000000000000000000000000000000000000000000000000000000000000006001600160a01b03168152602090f35b50346102155760203660031901126102155760ff60975460a01c1660028110156103f5571561329a5761329760043533614cc2565b80f35b604051630522bdf560e31b8152600490fd5b5034610215578060031936011261021557604051908082609854916132d083613769565b928383526020946001918660018216918260001461335a575050600114613300575b505061073b92500383613839565b90859250609882527f2237a976fa961f5921fd19f2b03c925c725d77b20ce8f790c19709c03de4d8145b85831061334257505061073b935082010138806132f2565b8054838901850152879450869390920191810161332a565b925093505061073b94915060ff191682840152151560051b82010138806132f2565b503461021557604036600319011261021557610590906133c561339d6136ed565b9133815260346020526040812060018060a01b03841682526020526040602435912054613b21565b90336149df565b503461021557602090816003193601126102155760975460ff8160a01c1660028110156104cb576001146104b9578260355460446040518094819363447df22960e01b83526004830152600435602483015260018060a01b03165afa9182156104ad578092613440575b5050604051908152f35b9091508282813d8311613469575b6134588183613839565b810103126102155750513880613436565b503d61344e565b503461021557806003193601126102155760206040516b033b2e3c9fd0803ce80000008152f35b5034610215578060031936011261021557602060405160128152f35b5034610215578060031936011261021557602060ff60975460a01c166134dc604051809261375c565bf35b5034610215576060366003190112610215576134f86136ed565b90613501613703565b60406044359260018060a01b038516815260346020528181203382526020522054926000198403613537575b6105909350614ae1565b8284106135535761354e83610590950333836149df565b61352d565b60405162461bcd60e51b815260206004820152601d60248201527f45524332303a20696e73756666696369656e7420616c6c6f77616e63650000006044820152606490fd5b50346102155780600319360112610215576020603554604051908152f35b50346102155780600319360112610215576099546040516001600160a01b039091168152602090f35b5034610215576080366003190112610215576135f96136ed565b50613602613703565b506064356001600160401b0381116102115761362290369060040161372f565b50506099546001600160a01b0316330361364857604051630a85bd0160e11b8152602090f35b604051634b60273560e01b8152600490fd5b5034610215576040366003190112610215576105906136776136ed565b60243590336149df565b503461021557806003193601126102155761029561369d613a75565b6040519182916020835260208301905b919082519283825260005b8481106136d9575050826000602080949584010152601f8019910116010190565b6020818301810151848301820152016136b8565b600435906001600160a01b03821682036104a157565b602435906001600160a01b03821682036104a157565b60a435906001600160a01b03821682036104a157565b9181601f840112156104a1578235916001600160401b0383116104a157602083818601950101116104a157565b9060028210156126125752565b90600182811c92168015613799575b602083101461378357565b634e487b7160e01b600052602260045260246000fd5b91607f1691613778565b60e081019081106001600160401b038211176137be57604052565b634e487b7160e01b600052604160045260246000fd5b6001600160401b0381116137be57604052565b604081019081106001600160401b038211176137be57604052565b61016081019081106001600160401b038211176137be57604052565b602081019081106001600160401b038211176137be57604052565b90601f801991011681019081106001600160401b038211176137be57604052565b604051906000826036549161386e83613769565b808352926020906001908181169081156138fc575060011461389b575b505061389992500383613839565b565b91509260366000527f4a11f94e20a93c79f6ec743a1954ec4fc2c08429ae2122118bf234b2185c81b8936000925b8284106138e45750613899945050508101602001388061388b565b855488850183015294850194879450928101926138c9565b9150506020925061389994915060ff191682840152151560051b820101388061388b565b9060405191826000825461393381613769565b908184526020946001916001811690816000146139a15750600114613962575b50505061389992500383613839565b600090815285812095935091905b8183106139895750506138999350820101388080613953565b85548884018501529485019487945091830191613970565b9250505061389994925060ff191682840152151560051b820101388080613953565b6001600160401b0381116137be57601f01601f191660200190565b81601f820112156104a1578035906139f5826139c3565b92613a036040519485613839565b828452602083830101116104a157816000926020809301838601378301015290565b609a54811015613a5f57609a60005260011b7f44da158ba27f9252712a74ff6a55c5d531f69609f1f6e7f17c4443a8e2089be40190600090565b634e487b7160e01b600052603260045260246000fd5b60ff60975460a01c1660028110156126125715613b1657613a94613cda565b613a9c61385a565b9060008091609b54925b838110613ab4575050505090565b613abd81613a25565b505482101580613b03575b613ad5575b600101613aa6565b93509050613ae283613a25565b5054906001613afb81613af487613a25565b5001613920565b949050613acd565b5082613b0e82613a25565b505411613ac8565b613b1e61385a565b90565b919082018092116122d557565b919082039182116122d557565b3d15613b66573d90613b4c826139c3565b91613b5a6040519384613839565b82523d6000602084013e565b606090565b939460e095613ba494613899999b9a989461010094885260208801526040870152606086015260808501528060a08501528301906136ad565b9560c0820152019061375c565b818110613bbc575050565b60008155600101613bb1565b906064820291808304606414901517156122d557565b818102929181159184041417156122d557565b519081151582036104a157565b91909160c060e08201938160018060a01b039182815116855282602082015116602086015262ffffff60408201511660408601528260608201511660608601526080810151608086015260a081015160a0860152015116910152565b519061ffff821682036104a157565b908160e09103126104a15780516001600160a01b03811681036104a1579160208201518060020b81036104a15791613ca360408201613c5a565b91613cb060608301613c5a565b91613cbd60808201613c5a565b9160a082015160ff811681036104a15760c0613b1e919301613bf1565b60ff60975460a01c1660028110156126125715613dc457609954604051633850c7bd60e01b8152906001600160a01b039060e0908390600490829085165afa9182156122c057600092613d9d575b50307f000000000000000000000000000000000000000000000000000000000000000082161015613d7257613d5e911680613bde565b80156106b7576503782dace9d960d21b0490565b613d7d911680613bde565b670de0b6b3a7640000908181029181830414901517156122d55760c01c90565b613db791925060e03d60e011610e8d57610e788183613839565b5050505050509038613d28565b600090565b337f00000000000000000000000000000000000000000000000000000000000000006001600160a01b0316146138995760ff60975460a01c1660405190613e0f8261381e565b600082526000613e1d614dbb565b60ff60975460a01c169160028110156126125760028310156126125782036114a35764174876e800341061149157331561147f5760009260008093600160009114614730575b60975460ff8160a01c16600281101561471c57156144f2575b50613f6a575b69d3c21bcecceda100000081101580613f56575b613ef5575b613eeb60407f90ab8fe2236bc2790ca3172ce5ecce2251c7eb4f791cb4cc58fa1a654d7e819f94338152603360205220549260355460ff60975460a01c1691604051958695339a339a3489613b6b565b0390a36001606555565b613efd613a75565b6020613f0a611a69613cda565b90896044840152606483015203925af180156113ff57613f2b575b50613e9b565b602090813d8311613f4f575b613f418183613839565b810103126104a15738613f25565b503d613f37565b50609c546001600160a01b03161515613e96565b6097805460ff60a01b1916600160a01b179055477f00000000000000000000000000000000000000000000000000000000000000006001600160a01b03163b15610ed857604051630d0e30db60e41b81528481600481857f00000000000000000000000000000000000000000000000000000000000000006001600160a01b03165af18015610edc579085916144de575b505061400630614e71565b61405a817f00000000000000000000000000000000000000000000000000000000000000007f00000000000000000000000000000000000000000000000000000000000000006001600160a01b0316615102565b6140847f000000000000000000000000000000000000000000000000000000000000000030614f5d565b307f00000000000000000000000000000000000000000000000000000000000000006001600160a01b031610156144d7577f0000000000000000000000000000000000000000000000000000000000000000905b307f00000000000000000000000000000000000000000000000000000000000000006001600160a01b031610156144b157305b307f00000000000000000000000000000000000000000000000000000000000000006001600160a01b031610156144a057815b307f00000000000000000000000000000000000000000000000000000000000000006001600160a01b03161015614499576aa56fa5b99019a5c8000000915b609954604051633850c7bd60e01b8152906001600160a01b031660e082600481845afa918215612046578a92614472575b50307f00000000000000000000000000000000000000000000000000000000000000006001600160a01b0316101561446057896d13c4b57968ceb7aab7ea377e80c95b6001600160a01b039081169316918383036143e2575b505050506040519461421886613802565b6001600160a01b039081168652908116602086019081526101f46040808801918252620d899f1960608901908152620d89a06080808b0191825260a08b0197885260c08b0198895260e08b018e81526101008c018f8152306101208e01908152426101408f019081529651634418b22b60e11b81529d518a1660048f01529751891660248e0152955162ffffff1660448d01529251600290810b60648d0152915190910b60848b0152955160a48a0152955160c4890152945160e488015251610104870152518116610124860152915161014485015290839061016490829089907f0000000000000000000000000000000000000000000000000000000000000000165af1918215610edc578592614399575b50609954609754604080519384526aa56fa5b99019a5c800000060208501528301939093526001600160a01b03169161436e90606083019060a01c60ff1661375c565b7f03f60da5a7cd92c2eb1a3d7b468a95ecace1e0a3f152dbf3c40881b9044c9efa60803092a3613e82565b9091506080813d6080116143da575b816143b560809383613839565b81010312611f6f57602081519101516001600160801b03811603611f6f57903861432b565b3d91506143a8565b604092849260c49285519687958694630251596160e31b865230600487015211602485015260646044850152606484015260a060848401528160a48401525af18015610e9457614435575b808981614207565b604090813d8311614459575b61444b8183613839565b81010312612005573861442d565b503d614441565b896a0cf330de50b81bb3db441b6141f1565b61448c91925060e03d60e011610e8d57610e788183613839565b50505050505090386141ae565b829161417d565b6aa56fa5b99019a5c800000061413e565b7f000000000000000000000000000000000000000000000000000000000000000061410b565b30906140d8565b6144e7906137d4565b610ed8578338613ffb565b9695509293508392503490508261271061450b83613bc8565b04936145178534613b2e565b60355460405163486b050760e11b8152600481018290526024810192909252909860208a6044816001600160a01b0385165afa9182156123225788999a899899936146e5575b508299611135576b0295be96e6406697200000009283828103116122d55781840381146146dc575b8184031061462b575b505050908561459f88949833614f10565b806145c9575b508015613e7c57600080808093335af16145bd613b3b565b5015610fc75738613e7c565b7f0000000000000000000000000000000000000000000000000000000000000000600080808085855af16145fb613b3b565b5015610fc7576040519182526001600160a01b03169060008051602061526283398151915290602090a2386145a5565b60405163447df22960e01b815260048101829052920360248301819052985090965091925060209186915060449082906001600160a01b03165afa9384156122c0576000946146a8575b5061468561271061226186613bc8565b90813411614698575b600138808061458e565b506146a38134613b2e565b61468e565b9093506020813d6020116146d4575b816146c460209383613839565b810103126104a157519238614675565b3d91506146b7565b60019450614585565b975091506020873d602011614714575b8161470260209383613839565b810103126104a157889651913861455d565b3d91506146f5565b634e487b7160e01b86526021600452602486fd5b945050915061271061474134613bc8565b049161474d8334613b2e565b938361497c575b7f00000000000000000000000000000000000000000000000000000000000000006001600160a01b03163b156104a157604051630d0e30db60e41b8152600081600481897f00000000000000000000000000000000000000000000000000000000000000006001600160a01b03165af180156122c057614968575b5060405163095ea7b360e01b81527f00000000000000000000000000000000000000000000000000000000000000006001600160a01b038116600483015260248201879052602091828180604481010381897f00000000000000000000000000000000000000000000000000000000000000006001600160a01b03165af1801561117a57918391879361492b575b506148da9060405161486e816137a3565b60018060a01b037f000000000000000000000000000000000000000000000000000000000000000016815230848201526101f460408201523360608201528a60808201528460a08201528460c08201526040519485809481936304e45aaf60e01b835260048301613bfe565b03926001600160a01b03165af1918215610edc5785926148fd575b505090613e63565b90809250813d8311614924575b6149148183613839565b810103126104a1575138806148f5565b503d61490a565b8281939294503d8311614961575b6149438183613839565b81010312610e35576148da869261495a8593613bf1565b509061485d565b503d614939565b6149739193506137d4565b600091386147cf565b7f0000000000000000000000000000000000000000000000000000000000000000600080808088855af16149ae613b3b565b5015610fc7576040518581526001600160a01b039091169060008051602061526283398151915290602090a2614754565b6001600160a01b03908116918215614a905716918215614a405760207f8c5be1e5ebec7d5bd14f71427d1e84f3dd0314c0f7b2291e5b200ac8c7c3b925918360005260348252604060002085600052825280604060002055604051908152a3565b60405162461bcd60e51b815260206004820152602260248201527f45524332303a20617070726f766520746f20746865207a65726f206164647265604482015261737360f01b6064820152608490fd5b60405162461bcd60e51b8152602060048201526024808201527f45524332303a20617070726f76652066726f6d20746865207a65726f206164646044820152637265737360e01b6064820152608490fd5b60ff60975460a01c166002811015612612571580614cab575b61329a576001600160a01b03908116918215614c585716918215614c0757600082815260209060338252604080822054848110614bb4579160809391857fbd6d98a2991540b32e6a2c03711e1f7cda90bfd274d48943ba4a217c9babf66796948884526033855203818320558782528082208481540190558787600080516020615282833981519152858451888152a3868252603383528080832054928981522054916035549382519586528501528301526060820152a3565b815162461bcd60e51b815260048101859052602660248201527f45524332303a207472616e7366657220616d6f756e7420657863656564732062604482015265616c616e636560d01b6064820152608490fd5b60405162461bcd60e51b815260206004820152602360248201527f45524332303a207472616e7366657220746f20746865207a65726f206164647260448201526265737360e81b6064820152608490fd5b60405162461bcd60e51b815260206004820152602560248201527f45524332303a207472616e736665722066726f6d20746865207a65726f206164604482015264647265737360d81b6064820152608490fd5b506099546001600160a01b03838116911614614afa565b6001600160a01b03168015614d6c5780600052603360205260406000205491808310614d1c5760208160008051602061528283398151915292600095858752603384520360408620558060355403603555604051908152a3565b60405162461bcd60e51b815260206004820152602260248201527f45524332303a206275726e20616d6f756e7420657863656564732062616c616e604482015261636560f01b6064820152608490fd5b60405162461bcd60e51b815260206004820152602160248201527f45524332303a206275726e2066726f6d20746865207a65726f206164647265736044820152607360f81b6064820152608490fd5b600260655414614dcc576002606555565b60405162461bcd60e51b815260206004820152601f60248201527f5265656e7472616e637947756172643a207265656e7472616e742063616c6c006044820152606490fd5b15614e1857565b60405162461bcd60e51b815260206004820152602b60248201527f496e697469616c697a61626c653a20636f6e7472616374206973206e6f74206960448201526a6e697469616c697a696e6760a81b6064820152608490fd5b6001600160a01b03168015614ecb576035546aa56fa5b99019a5c80000008082018092116122d5576020600080516020615282833981519152916000936035558484526033825260408420818154019055604051908152a3565b60405162461bcd60e51b815260206004820152601f60248201527f45524332303a206d696e7420746f20746865207a65726f2061646472657373006044820152606490fd5b6001600160a01b0316908115614ecb57600080516020615282833981519152602082614f40600094603554613b21565b6035558484526033825260408420818154019055604051908152a3565b604051636eb1769f60e11b81523060048201526001600160a01b03808416602483015260209392168382604481845afa9182156122c0576000926150d3575b506aa56fa5b99019a5c800000082018092116122d55760405163095ea7b360e01b8582019081526001600160a01b0390941660248201526044810192909252615044926000908190614ffb85606481015b03601f198101875286613839565b60405194615008866137e7565b8786527f5361666545524332303a206c6f772d6c6576656c2063616c6c206661696c656488870152519082855af161503e613b3b565b916151c4565b80518281159182156150b4575b505090501561505d5750565b6084906040519062461bcd60e51b82526004820152602a60248201527f5361666545524332303a204552433230206f7065726174696f6e20646964206e6044820152691bdd081cdd58d8d9595960b21b6064820152fd5b83809293500103126104a157816150cb9101613bf1565b808238615051565b9091508381813d83116150fb575b6150eb8183613839565b810103126104a157519038614f9c565b503d6150e1565b604051636eb1769f60e11b81523060048201526001600160a01b03808416602483015260209492169291908481604481875afa9081156122c057600091615190575b506000614fed93614ffb61515d61504497958495613b21565b60405163095ea7b360e01b8a82019081526001600160a01b03909416602482015260448101919091529586906064820190565b939190508484813d83116151bd575b6151a98183613839565b810103126104a15792519092906000615144565b503d61519f565b9192901561522657508151156151d8575090565b3b156151e15790565b60405162461bcd60e51b815260206004820152601d60248201527f416464726573733a2063616c6c20746f206e6f6e2d636f6e74726163740000006044820152606490fd5b8251909150156152395750805190602001fd5b60405162461bcd60e51b81526020600482015290819061525d9060248301906136ad565b0390fdfed83025ecea4187a6d1980b17ae1a8a42e85a8dad039978904adea820ac3f9d18ddf252ad1be2c89b69c2b068fc378daa952ba7f163c4a11628f55a4df523b3efa2646970667358221220b63e91868fde2848738a4a39ee4f0cbbe10cdca471fe51f578bfe1e778195dc964736f6c63430008170033","linkReferences":{}},"methodIdentifiers":{"CONVICTION_THRESHOLD()":"4bdda510","MAX_TOTAL_SUPPLY()":"33039d3d","MIN_ORDER_SIZE()":"d3f82d8e","TOTAL_FEE_BPS()":"6f28507c","WETH()":"ad5c4648","allowance(address,address)":"dd62ed3e","approve(address,uint256)":"095ea7b3","balanceOf(address)":"70a08231","bondingCurve()":"eff1d50e","burn(uint256)":"42966c68","buy(address,address,string,uint8,uint256,uint160)":"782fd084","convictionNFT()":"5474f0af","currentExchangeRate()":"a3684977","decimals()":"313ce567","decreaseAllowance(address,uint256)":"a457c2d7","feeRecipient()":"46904840","getCurrentPrice()":"eb91d37e","getEthBuyQuote(uint256)":"6c1f20d1","getEthSellQuote(uint256)":"b69f9d56","getTokenBuyQuote(uint256)":"36480dd5","getTokenSellQuote(uint256)":"810a94d7","increaseAllowance(address,uint256)":"39509351","initialize(address,string,string,string,(uint256,string)[],address)":"776b5289","marketType()":"2dd48909","name()":"06fdde03","nonfungiblePositionManager()":"b44a2722","numPriceLevels()":"8321d1f6","onERC721Received(address,address,uint256,bytes)":"150b7a02","poolAddress()":"1755ff21","priceLevels(uint256)":"ebfb4f4a","sell(uint256,address,string,uint8,uint256,uint160)":"6037e3a2","state()":"c19d93fb","swapRouter()":"c31c9c07","symbol()":"95d89b41","tokenURI()":"3c130d90","totalSupply()":"18160ddd","transfer(address,uint256)":"a9059cbb","transferFrom(address,address,uint256)":"23b872dd","uniswapV3SwapCallback(int256,int256,bytes)":"fa461e33"},"id":46}